:020000040000FA
:02000000802856
:080008009200900B3228051D47
:100010000B2805110C280515910A11083C3C031DFD
:1000200030289101950A15080A3C031D30289501D6
:10003000960A1608063C031D30289601A00A2008DF
:100040000A3C031D2628A001990A30282008043CF8
:10005000031D30281908023C031D3028A001990116
:0E00600064309000D93081000B1112080900A5
:100100008316860113308500073081008312A030EA
:100110008B009101900164309000D93081009701EB
:1001200095019601A001990185112110051CB128A6
:100130002110851CC1282210150886000616D7201C
:100140000612160886008616D7208612200886001A
:100150000617D7200613190886008617D72086139E
:1001600096282118C0282114950A15080A3C031D59
:10017000C0289501960A1608063C031DC028960162
:100180009C282218D6282214A00A20080A3C031D05
:10019000CC28A001990AD6282008043C031DD628A3
:1001A0001908023C031DD628A00199019C28FF30A4
:0801B0009800980BD928080003
:00000001FF
